:2000000000802020174200000F4200000F4200000000000000000000000000000000000025
:200020000000000000000000000000000F42000000000000000000000F4200000F420000CD
:200040000F420000E11700000F4200000F4200000F4200000F4200000F4200000F42000071
:20006000000000000F4200000F42000000000000000000000F4200000F4200000F420000EB
:200080003D3F00000F4200000F4200000F4200000F4200000F42000000000000000000004F
:2000A0000F4200000F42000000000000000000000F420000000000000F4200000F420000AB
:2000C000F0B5FFB08EB0049306920646929802900025E84305908C913468204604F05FF808
:2000E00021188B9503918C4200D3BBE00020879087A908738890059889902F46049D207879
:20010000002800D1AFE0252805D0641C34600699A8477F1CF3E78B97601C306087AC204657
:20012000314600F0A7F88CAA2046314600F0BFF8306801787A2925D0682919D06A2908D071
:200140006C290ED0742908D04C2922D1879980221BE087990122D20217E0879901225203EC
:2001600013E0427887996C2A64D10122120205E042788799682A60D101225202114387914B
:20018000801C05E08799012212030A438792401C0178441C346087A8017373291FD06E2992
:2001A00029D1879832490840202850D040283CD001214A03904238D04A02904242D0CA0242
:2001C000904205D00A0390422FD0090288422CD1F8178C9904C98C91176050603BE087A839
:2001E0000078400619D4009587A88CAA8BAB069900F01DF92FE007AD87A98CAA284600F0F8
:200200006DF9024628460699029B9847411C059D00D0C5198B9503991FE0009587A88CAA45
:200220008BAB069900F09FF815E08C9802C88C900F6010E0401C402201E0401C2022114373
:200240008791A5E78C9802C88C900F7003E08C9802C88C900F8003998B9D681C00D042E7B4
:20026000059F00E02F4638467FB00EB0F0BDC046603F000010B50A681378302B0FD0232B7E
:2002800007D02B2B09D02D2B05D0202B0ED1042306E0082304E0012302E0022300E01023A7
:2002A00004681C430460521C0A60E5E710BDFEB516460D460446086802782A2A10D130683B
:2002C000011D316000686060002805D54042606020680121014321602868471C2F6017E01B
:2002E0000021303A092A08D84218531C2B60435C6F467B545278491CF3E76A460023535466
:2003000012784718002A03D0684603F079F8606038782E2826D1781C286079782A2908D1EF
:200320003068011D31600068A0602868401C2860FEBD00203039092908D839188A1C2A60C3
:200340004A786B461A548978401CF3E76A46002111541078002804D0684603F051F8A060E1
:20036000FEBDA160FEBDF0B587B01E460C9F13681C1D14601D68002D3BD00491069084681F
:20038000002C04D4284603F0FBFE844203D3284603F0F6FE044606984068A042039000DC2D
:2003A000204601463068019140180296306005940398A0420EDD06980078C0070AD1059890
:2003C00001990E1A0024B44204DA20200499B847641CF8E70026049C069805998E420BDA71
:2003E0002868010A19D12D1DC0B22146B847761CF2E70020B84718E00599039A8A4214DDDC
:200400000078C00711D00198451A0024AC420CDA20200499B847641CF8E70020C0430299D3
:20042000086003F0E9FE5821016007B0F0BDF0B585B00C4606460A9D1068011D11600068AE
:200440000490002844D00393B768002F04D4049803F0A5FE874203D3049803F0A0FE0746C5
:2004600002967268BA42114600DC3946039B18680091401818600192BA420FDD0298007850
:20048000C0070BD10098C01B039000260398864204DA20202146A847761CF7E70026BE4220
:2004A00005DA0498805D2146A847761CF7E70198B84210DD02980078C0070CD00098C61B70
:2004C0000027B74207DA20202146A8477F1CF8E700202146A84705B0F0BDC046F0B589B04F
:2004E00001920F460446FF210846FA30251878680290002607960391FE31202220460092C3
:2005000003F046FE7F20800006942118089104952E713D46387B0246613A172A2AD8012361
:2005200093402C46B44D2B42254608D007A908AA2846019B00F066F900260596B3E0712520
:200540002B42254622D1022A14D1019B1868021D1A600068C2B2534253410593039AFC32A2
:20056000069B9A18089208702868022188432860002698E001464539032907D3252860D02A
:20058000412803D058280596D0D08DE0019A1068C11D0720814308460830106005C9D14343
:2005A0002F7B4900490D0BD17B3F944911400143049C2CD01920C1438F4234D36E2033E098
:2005C000002A01D4114602E00121C9075140D60F002205923A46413A062A0BD9613F062FDE
:2005E00061D8C0467F443F797F00BF440B5C5C5C3B3631007A441279520097440354545489
:20060000332E290008AB2A4600F052FB4BE0002311461A46059302F04BFB1921C9438F4204
:2006200025D3662224E04E20E0708F4201D3612100E04121A17008946070002005900226B5
:2006400031E0002006994870252008700120A1E008AB2A4600F03CFC25E008AB2A4602F04E
:20066000C1FC20E008AB2A4601F02AF81BE04622E2708F4201D36E2200E04E22A2708F426A
:2006800001D3692100E0492161703F21C900069A51180891002803D02D202070042602E032
:2006A0002B2020700326287B012701466F39092904D801228A4052490A4201D158286BD10C
:2006C000049B029C04972946069F3D1908980C460978C90707D1191D091A62689142069F22
:2006E00001DC691A4F1C411C0398430000263846324603F003FA08900599002903D0411C59
:200700000891067000E00146A94206D8481E691A491C202203F03CFD2E702078C00605D449
:200720000698391A202203F033FD2EE0069887422BD00698391A3026324603F029FD07987C
:200740004142414104980140012905D12078400702D43846069905E03878069A511C1070C3
:20076000781C3E70227B412A0CD0582A05D0612A08D0782A01D0702A07D123781B0701D422
:20078000612A02D142784A704670069803F007FD0599401809B0F0BD002E09D0012E049B0B
:2007A000029C8FD10120079029680220084007E0079A296802200840002A09D0049B029CC5
:2007C00008994A1E08922D220A704742474179E70028049B029C08D1480700D472E70898E2
:2007E000411E0891009901706CE70898411E08912B210170002765E708C19000FFFF0F0076
:2008000043020000F8B514460F4605468068002804D4286810218843286001E00120A860E6
:20082000287B1026582808D0782806D0702804D06F2801D1082600E00A262846194600F041
:2008400055F8AA68002A09D102460A4306D12878000749D52B7B0020024612E02B7B642BCF
:2008600003D1642300290BD504E0692B08D1002906D5692301223A60002240428A4100E027
:200880000A4600941146324600F0B0F8A968884206DA401C21684A1E226030220A70F5E7DB
:2008A000287B582803D0782801D070280FD1297809070CD5702800D1782021684A1E226053
:2008C00008702068411E216030210170287B6F280AD12878000707D520684178302903D071
:2008E000411E216030210170F8BDC04610B5037B702B05D10868021D0A60006800226FE015
:200900000068384A024001204403A24222D0402A20D00402A24230D04402A24246D0C40223
:20092000A2422AD00403A24214D0202A12D100221C46643C142C06D8A0402B4C204204D10D
:20094000212420423ED1582B49D10868031D0B60008845E000221C46643C142C06D8A0407A
:20096000214C204204D1212420422BD1582B36D10868031D0B60006832E01A46643A142AF5
:2009800006D89040184A104206D12122104203D10020582B024623D10868C21D072082439B
:2009A0001046083008601068526819E000221C46643C142C0CD8A0400B4C20420AD1212415
:2009C000204205D00868021D0A600068C21707E0582B04D10868031D0B60007800E01046BE
:2009E000114610BD603F000000081200FEB501920D460646582B01D0174800E015480090B5
:200A0000089802903046284305D1029A1068411E116030210170019C3046284313D0304670
:200A20002946224600F01AF807460D46224603F053F8301A0099085C029B19684A1E1A6050
:200A400008703E46E8E70298006803F0A8FB401EFEBDC046604900007149000080B5102A42
:200A600006D0082A09D1C0084A078018C90880BD00090A078018090980BD002904D111467F
:200A800002F07EFC002180BD002303F021FB80BD80B598B017901691179800283BD1FFE789
:200AA0001698002837D5FFE70120149001037C48139003F083F9149841047A48159003F084
:200AC0007DF91398802103F09EFA14991598090403F099FA1698012803DBFFE716981290F1
:200AE00003E0169840421290FFE712996F48002203F036FB1698012803DBFFE716981190C9
:200B000003E0169840421190FFE711996748012203F026FBC1E0179800283BD1FFE7169893
:200B2000002837D4FFE75E480E90802103F046F901200F9001045B48109003F03FF90E98AC
:200B40000F99090303F05FFA0F991098490403F05AFA1698012803DBFFE716980D9003E0E8
:200B6000169840420D90FFE70D995048002203F0F7FA1698012803DBFFE716980C9003E0B6
:200B8000169840420C90FFE70C994848012203F0E7FA81E0179801283CD1FFE71698002875
:200BA00038D5FFE701200A9081063D48089003F005F90A98010609913A480B9003F0FEF8A9
:200BC0000898099903F01FFA0A990B98090503F01AFA1698012803DBFFE71698079003E0A9
:200BE000169840420790FFE707992F48002203F0B7FA1698012803DBFFE71698069003E0A9
:200C0000169840420690FFE706992748012203F0A7FA40E0179801283CD1FFE716980028A2
:200C200038D4FFE701200290010605911C48039003F0C4F8029801051A48049003F0BEF88D
:200C400002990398890603F0DEF90498059903F0DAF91698012803DBFFE71698019003E048
:200C6000169840420190FFE701990F48002203F077FA1698012803DBFFE71698009003E09A
:200C8000169840420090FFE700990748012203F067FAFFE7FFE7FFE7FFE718B080BDC046AC
:200CA00000000A4000200A400000864000208640F0B5A5B0049308920E46074600240A9446
:200CC0007E4D22462B4602F007F8002813D100247B4D3846314622462B4601F0F3FF0028AE
:200CE00009D1002238463146134601F0D7FF00283C46354607D10AAA2046294602F0C0F8B3
:200D00000A98401E0A900899087B0BAE412801D06D4800E06B4809908868019030200390DD
:200D200030700022079220462946134601F0C0FF01210028029101D0C8074540771C20467F
:200D40002946079A134601F0A9FF00280DD124AA2046294602F094F8249801210A1A204602
:200D6000294601F025F804460D462046294602F07BFA06463946059702F008F906903046B7
:200D800002F096FD03F025FA04460D460198471C20D3059806994618002220462946134646
:200DA00001F07CFF002848D1002220462946474B00F01EFF04460D4602F056FA0999095C0A
:200DC000771C317002F074FD03F003FA04460D463E46E1E70BA806994618002F16D07F1E41
:200DE000002220462946394B00F002FF04460D4602F03AFA0999095C3246761C517002F000
:200E000057FD03F0E6F904460D46E6E73178099C204603F067F9001B08280EDB0196741EDE
:200E2000089D079F099E2178304603F05BF9801B0E2805DD2770641EF5E7089D079F04E093
:200E40000999081840782070019E37700A98297B4129049C01D0702100E05021069E059FF7
:200E6000224602F016F9AA68501C04D1384603F096F9421EAA6038463146234602F0A4FC5C
:200E8000A8680028029A02D128680007C20F38463146234601F09EFE287B412801D07820E3
:200EA00000E0582021684A1E226008702068411E21600399017025B0F0BDC0460000F07F83
:200EC0000000F0FF604900007149000000003040F0B5A3B003930F4604460492916800296B
:200EE00003D0002904D5062100E001210498816007910AA8302108910170002520463946C8
:200F00002A462B4601F0D4FE01210028059101D0C8074740624E20463946604A334601F07D
:200F2000E5FE002809D00022204639465E4B00F0E3FC04460F466D1CEDE75A4E0022204622
:200F400039460992134601F0A9FE002811D1002220463946334601F0ABFE002809D000223F
:200F600020463946504B00F043FE04460F466D1EE4E702950AA8451C2046394602F074F9DD
:200F80000695294602F002F807998842019004DD481C0AA90A18085C1FE0C9430E180AA9FE
:200FA0000D18681C07902046394602F05DF902F07FFC02460B462046394600F057F9002277
:200FC000394B00F015FE04460F4602F04DF9079A30306870761C1546E3D3C0B23528039EC7
:200FE000049F029B099D0FD31446501E0178491CCAB201703A2A03D330210170401EF5E760
:201000000AA98842224640D00198C41815700220C043844202DBB868844207DD601E397B1D
:20102000891EC9B2324602F034F80124069803F0B6F8401E0599A0421ADB0028089A01D422
:20104000069A125C1346303B5D1EAB41C9431943C90705D13978090702D40025059905E00A
:2010600031684B1E33600A7001250021401EE2E73868082202402A43501E82410698214644
:20108000334601F0A7FD23B0F0BD501E002101700198C018441C0AA80690B8E70000C0FF4B
:2010A000FFFFDF410000F03F0000244080B590B002200590072102F0ABFD012006900107D2
:2010C00066480A9002F03EFE05200D90082102F09FFD06990A98C90702F034FE0D99122014
:2010E00002F096FD06990A98090202F02BFE0D99132002F08DFD06990A98490202F022FE11
:201100000698002307930193C004089000900F200390042102911A4602F092F90299079B60
:201120000898019300900E2004901A4602F088F9039802F051FD049802F04EFD05991420D0
:2011400002F066FD0599152002F0EAFC352002F01DFE3A2002F01AFE332002F017FE2F2020
:2011600002F014FE212002F011FE0D2002F00EFE202002F00BFE2A2002F008FE079A089B3D
:2011800000922220114602F09FFA079A089B00922320114602F098FA079A089B0092172098
:2011A000114602F091FA079A089B00921620114602F08AFA069802F0E9FD362002F0E6FDE1
:2011C000079A089B00922420114602F07DFA079A089B00922E20114602F076FA079A089B14
:2011E00000922520114602F06FFA079A089B00922620114602F068FA0A981949099102F00F
:2012000016FF09990A9802F09DFD0A980D99890602F00CFD0A98032149030B9102F0CEFCAD
:201220000A980B9902F0E6FC0E480E900E490C9102F0FDFE0C990E9802F084FD0D990E98B5
:20124000090302F0F3FC0E98C0210F9102F0B6FC0E980F9902F0CEFC10B080BD00000A4085
:201260008210000700200A4000001301FCB40124E407634002E0FCB40124E40708B41D0376
:20128000ED08D60D354356025F007F0D06D12C00344300D0AEE001B0FCBC7047A4082543AF
:2012A00007242402FF34A74205D10020190D090501B0FCBC7047002B03D50024A61BAC41A2
:2012C00025000B03DB08C20D134342024800400D07D11C00144300D08CE00EBC1000F0BCED
:2012E000704701246407234307242402FF34A04205D10020090D090501B0FCBC7047002978
:2013000003D50024A21A9C412300C11B08D51C002B0025001400320026000024611A3800AD
:20132000362925D502B4393949420C00203C03D22F008F40374301E03700A740002F01D0ED
:2013400040210E4302BC20290BD500290ED04C42203420B4A5402C0020BC0D41CE4036199F
:2013600004E000292E000D4120390E4192196B411C0014433ED00024002B04D501240021F6
:201380008A1A99410B00401E52005B41FBD50121890215000D400CD0521800277B4101D39C
:2013A000401C0BE00721C90115000D4001D189008A43072109028A4352005B41801C19DDEA
:2013C00007210902FF31884209D30EBC0020C90F0902FF31C900C91D0905F0BC7047190BC3
:2013E00000050143E40721431805120B104301B0FCBC70470021002001B0FCBC7047704790
:2014000080B588B001F07AFB56480068002819D1FFE755480068002814D1FFE75348006800
:2014200000280FD1FFE75248006800280AD1FFE7002050490391FFF72BFB03990120FFF7B7
:2014400027FB8CE048480068012819D1FFE747480068012814D1FFE74248006800280FD128
:20146000FFE74348006800280AD1FFE7002041490291FFF70DFB02990120FFF709FB6DE06C
:201480003948006801280ED1FFE738480068002809D1FFE700203749FFF7FAFA0120384979
:2014A000FFF7F6FA59E03048006800280ED1FFE72E480068012809D1FFE700203049FFF7EA
:2014C000E7FA01202B49FFF7E3FA45E028480068012818D1FFE723480068002813D1FFE709
:2014E0002148006800280ED1FFE720480068002809D1FFE700202149FFF7CAFA01201E49AA
:20150000FFF7C6FA27E017480068012818D1FFE715480068002813D1FFE7144800680028AC
:201520000ED1FFE712480068002809D1FFE700201149FFF7ADFA01201049FFF7A9FA09E029
:2015400000200C490191FFF7A3FA01990120FFF79FFAFFE7FFE7FFE7FFE7FFE7FFE708B08B
:2015600080BDC046880120208C0120209001202094012020B80B000070170000EE020000B2
:20158000DC050000F0B587B01D4616463024059004700027104619463A463B4601F088FB21
:2015A0000028019402D00120C00745400D9804900C9803903F4C304629463D4A234601F06E
:2015C00095FB002809D00022304629463B4B00F093F906460D467F1CEDE70598441C002244
:2015E000304629460692134601F058FB002811D1002230462946304B01F05AFB002809D0FE
:201600000022304629462D4B00F0F2FA06460D467F1EE4E70398C01903903046294601F08B
:2016200023FE214601F0B2FC02942418C019049908600398471C012F1ADB3046294601F0DA
:2016400013FE02F035F902460B4630462946FFF70DFE0022194B00F0CBFA06460D4601F00F
:2016600003FE3030611C20707F1E0C46E5D100E02146481E0278352A0DD3891E019C0A782B
:20168000521CD3B20A703A2B02D30C70491EF6E7059A914204D006990170029807B0F0BD8F
:2016A0000699017004990868401C08600598F5E70000C0FFFFFFDF410000F03F0000244060
:2016C000F0B5A1B0049305469068002801D5062090600290039200243D4F284622460691E2
:2016E0003B4601F0F9FA06990028264614D10026384F284632463B4601F0E4FA06990028C3
:201700000AD1002228460592134601F0C7FA069B00282E461F4622D12F4D02F067FD01F064
:20172000C7FA002809D00022304639462B4B00F05FFA06460F46641EEFE7284D02F056FD5E
:2017400001F0CAFA002807D002F050FD00F0D4F806460F46641CF1E735463B46059407A89D
:2017600002990091019008A82A46FFF70BFF0446079D022D0DD1059D6D1C204602F00FFD02
:201780002018401E0021017028460125049E039F02E0049E039F0598397B324601F079FCF4
:2017A000BA6820462946334602F00EF8204602F0F6FC854203D138680007C20F00E0012261
:2017C00020462946334601F005FA21B0F0BDC0460000F07F0000F0FF0000F03F0000244056
:2017E00080B582B0032041033D4802F0C3FA3D49019108603C48C02102F0BCFA014601987A
:201800003A4A116040788006002813D5FFE701208103334802F0B5FB002805D1FFE734497C
:201820000868401E086004E031490868401C0860FFE719E02B4840784006002813D5FFE79A
:2018400001204103264802F09CFB002805D1FFE727490868401C086004E025490868401E84
:201860000860FFE7FFE7FFE7204800780006002812D5FFE71C48402102F083FB002805D140
:20188000FFE71C490868401E086004E019490868401C0860FFE718E014480078400600282D
:2018A00012D5FFE71048802102F06BFB002805D1FFE710490868401C086004E00D490868EF
:2018C000401E0860FFE7FFE7FFE703204103044802F066F90448C02102F062F902B080BD23
:2018E00000000A408001202000200A4084012020980120209C012020FCB40C005C40E40FAD
:20190000E40710B41D032D0B56006D415F007F0D73D001246405254307242402FF34A7422B
:2019200061D00B031B0B42005B414800400D64D001246405234307242402FF34A04252D01F
:20194000C01B002100273624AB4200D1B24204D37F414941921BAB4101E07F414941641EF1
:2019600006D0002B01D1002A02D052005B41EBE7202C07D2162C0AD33900A7402026361BDD
:20198000F1400BE0203C3900A140002706E0A1402026361B3D00F5402943A74001246405DD
:2019A000214202D17F004941401E00247F1C61410124A405214202D0401CA14301E0640899
:2019C000A14303242402FF34001916DD2419A04209D8CC074908000501437808204310BC7B
:2019E0002143FCBC704702BC0020C90F0902FF21C900C91D0905FCBC70470021002001B015
:201A0000FCBC7047F0B5394A8218394BC0183A4D4C790B79002C22D0466F202B02D0052450
:201A2000E70100E0354F2E40002B00D188273E434667846F2C403C438467446B2D4E3440AC
:201A40004463846B3440846300244465846554688F26F643344054609468344094600C6835
:201A60008979202B09D006467036002B15D1641E4460C46E2C40882715E0641E4460C46E7D
:201A80002C401E4E3443C466046F2C40344304671B4D01246707064607E00527FF01640846
:201AA0004460C46E2C403C43C46634682C403C433460C46A0F4D2C40C462046B2C400463C2
:201AC0000024C4640465C46F8F25ED432C40C46714682C401460194302680A4B1340BD22FA
:201AE0000A40D118891C0160F0BDC04684180000041800008888FDFF24493E000104000086
:201B0000FFFFFFCF4000FFCFB0B5364A80184A6842600A78222A56D8930001A4E3589F46C6
:201B2000BD1B0000C71B0000BD1B0000C71B0000C71B0000C71B0000C71B0000C71B0000A9
:201B4000C71B0000C71B0000C71B0000C71B0000C71B0000C71B0000C71B0000C71B000075
:201B6000AD1B0000C71B0000AD1B0000C71B0000C71B0000C71B0000C71B0000C71B000089
:201B8000C71B0000C71B0000C71B0000C71B0000C71B0000C71B0000C71B0000C71B000035
:201BA000AD1B0000C71B0000AD1B0000036803242407A343012464071B1903E003680324D7
:201BC0002407A34303600B69C360CB68C46A064D2540064C1C402B19C362097A1143016092
:201BE000B0BDC046041800008888FDFF77770200FCB50C005C40E40FE40710B4DD02540D1F
:201C00002543D6025F007F0D60D00124E407254307242402FF34A74250D0CB02440D2343E0
:201C2000C2024800400D51D00124E407234307242402FF34A04241D0C01901B4180029006E
:201C400001F0EEFC0F0001B41800310001F0E8FC03000C001000310001F0E2FC0600100092
:201C6000290001F0DDFC05007618002202BC01BC55415141A419554151418024A4005B1978
:201C80005141FF18514100D564003F19514102D47F00494100E0401C03242402FF34001B30
:201CA00014DD2419A04209D80305F80A4C0520434900090B194310BC2143FCBD0020FF2193
:201CC000C900C91D090510BC2143FCBD0021002001B0FCBDF0B584B03049314A0125AC0311
:201CE00016682B0203939E4316600E68264205D10E68264202D10E682642F6D06C02467E11
:201D00009769AF432E40BD1995612025455DD6690327BE433D407519D561224D2E680727D2
:201D2000374005262E60466A33681362736853622F60C3695B065B0CD5697F263602B5438D
:201D4000EB18D361E8C8009707680197476802971B071B0B2D03ADB2ED1833071B0D007AFE
:201D6000009E35431D43019B1D43029B1D43054390690D4B03400D482840C018906110681A
:201D8000039B184310600868204205D10868204202D108682042F6D004B0F0BD04020B4043
:201DA00008010B40001340408D00F0FF72FF0F00F8B515462A4E0A0D771C3A40294B9A424C
:201DC00013D00C46002A18D10122D2079443044344D00022244BFFF70BFF0C4623498D426F
:201DE00008DC234A234B214636E002460B46FFF742FAF8BD220D3A40363A5119B1420ADDCA
:201E000002F0FAF9222101600120C00704401D4821180020F8BD012904DB174A14400905CE
:201E20002143F8BD3522D24391420CDC02F0E4F92221016012488542E6DA0120C0070440E2
:201E400000202146F8BD0C4A144009051B225205891821430022094BFFF7CAFEF8BDC04606
:201E6000FE070000FF07000000005043AF3CFFFF59F3F8C21F6EA501FFFF0F800000903C49
:201E800051C300000000F07FFCB40127FF07794002E0FCB40127FF070C024D002D0E03D1FE
:201EA000002C52D1FCBC70473C43FF2D50D0A408002900D56442020243001B0E04D1002ADA
:201EC00043D10800FCBC70473A43FF2B41D09208002800D552425E1B04D5170022003C00CD
:201EE00076422B00192E06D527003741D2191C27F71B7F42BC40002A27D002D5524201278D
:201F000000E00027013B5200FCD51500802635400FD01500202635402C43803208D215006C
:201F2000402635402C4304D101263602B24300E05B1C5200023308DDFF2B0BD2500ADB052A
:201F40001843FF073843FCBC70470020FCBC70470800C70FFF07FF20C0053843FCBC7047F5
:201F600080B584B002F039F802F02CF8AE2001F074FB2020029001F070FB1020019001F0B1
:201F80006CFBB02001F069FBC82001F066FB0020039001F062FB019801F05FFB402001F045
:201FA0005CFB812001F059FBFF2001F056FBA12001F053FBA62001F050FBA82001F04DFB80
:201FC0003F2001F04AFBA42001F047FBD32001F044FB039801F041FBD52001F03EFBF0205B
:201FE00001F03BFBD92001F038FB222001F035FBDA2001F032FB122001F02FFBDB2001F0E9
:202000002CFB029801F029FB8D2001F026FB142001F023FBAF2001F020FB00F00EFE039975
:20202000084601F06BFB04B080BD704710B588B002910146029807AC217006A908700592E0
:2020400004A803700278294800F0BCFEFFE7274801F0F8FF8006002801D4FFE7F7E707A899
:20206000017822480022012301F03CF8FFE71F4801F0E8FF4006002801D5FFE7F7E7FFE7FF
:202080001A4801F0DFFF8006002801D4FFE7F7E71648019001F0F2F9019807A9097804AA85
:2020A0001378012201F01EF803A900200870FFE703A8007804A90978884215DAFFE7FFE76B
:2020C0000A4801F0C1FD002801D0FFE7F8E7074801F0C2FF059903AA12788854FFE703980E
:2020E000401C03A90870E3E708B010BD00200F4080B586B0034605A8037004AB197003A9EA
:202100000A700399203902AA11700078802804DBFFE705A900200870FFE704A800780828BE
:2021200004DBFFE704A900200870FFE705A8007804A9097801F0E2FA01A900200870FFE767
:2021400001A80078072810DCFFE702A8007801011748401801A90978405C01F099FAFFE751
:202160000198401C01A90870EAE705A800780499491CC9B201F0C2FA694600200870FFE7FB
:2021800068460078072811DCFFE702A80078010107484118684600784018007A01F078FAF0
:2021A000FFE70098401C69460870E9E706B080BD3042000010B588B007AC207006A801708A
:2021C000059204A80370002003900290069902AA11706A460121117001A90870FFE701A834
:2021E000007804A90978884211DAFFE7059801A90978405C69460B7802AAD0540098401C44
:202200000870FFE70198401C01A90870E7E704A80078421C164802A900F0D4FDFFE71448ED
:2022200001F010FF8006002801D4FFE7F7E707A8017804A80078431C0D48002200F052FFF4
:20224000FFE70B4801F0FEFE4006002801D5FFE7F7E7FFE7064801F0F5FE8006002801D4B5
:20226000FFE7F7E7024801F009F908B010BDC04600200F4080B59AB01E20069001F0D4FA51
:2022800000F054F806982449002207920A600968099101F0C9FA07982049FEF7F9FB012001
:2022A0001F49FEF7F5FBFFE700F040F81A480590006801F085F8019100901A4A0AA804902A
:2022C000402100F085FF049A0020042100F006FE05980168099800F045FD0890089801211F
:2022E000C9078843104900F029FD00280AD0FFE7002103910846FEF7CBFB03990120FEF77C
:20230000C7FB03E00A2001F08FFACDE7C82001F08BFA1AB080BDC046AC012020B80B0000A5
:2023200048F4FFFFA84900000000B04180B58CB008A80AA907AA00F041F9099906A8018001
:202340000021405E01F0F4F81C4900F0E1FA05901B480490059804991A4A039212680292E4
:2023600000F090FA0299FFF794FD03990860FFE714480068144900F0EBFC002809D0FFE7F8
:202380001048019000681349FFF783FD01990860EEE7FFE70B4800680C4900F0BBFC00287E
:2023A00009D0FFE70748009000680949FFF771FD00990860EEE70CB080BDC04600008342C7
:2023C0000AD7233CAC01202000003443000034C30000B4430000B4C380B58CB000200B90C8
:2023E0000A9001F087F8234801F078FD224801F075FD0120039001F02FFA039801F02CFAB5
:20240000039801F03FFA039801F03CFA1020049001F022FA049801F035FAFFF7A1FD00F024
:2024200083F8FFE701F080FCFFE700F083FE0990099800F0C5FF01910090104A05A80290CE
:20244000102100F0C5FE029A0020022100F046FD09980B4900F07CFC002803D0FFE7FFF752
:2024600009FF05E0FEF7CCFF142001F0DDF9DCE7D8E7C04600208640000086408C490000AB
:2024800000D08446F0B58B4200D1824204D90B0002000021002040E0002B00D1002A0CD14D
:2024A0000B00020000210020002B00D1002A01D0C943C043FFF7B9FD2FE01C0015000B00D1
:2024C00002000CB4002126002F00FF19764102D2491C4029F9D100201E001700FF19764165
:2024E00002D2401C4028F9D10E1A21002800320001F046FB0C0005000CBC00200021A342A6
:2025000000D1AA4201D3521BA341404149416D08E7073D436408761EF1D5059F002F01D081
:202520003A607B60F0BD000080B588B0682006906B2101910022009201F0BBFA009A06983E
:202540001921029101F0B5FA06981A210391022201F0AFFA06981B210491082201F0A9FAB6
:2025600006981C210591102201F0A3FA0199069801F07AFA0299024606980F4B07931A708E
:2025800001F072FA0399079B024606985A7001F06BFA0499079B024606989A7001F064FA1C
:2025A0000599079B02460698DA7001F05DFA0799087108B080BDC0467801202080B58AB027
:2025C00009900891079268203B2103AA01920E23FFF72CFD019A03980002517840180899C2
:2025E000088090780002D17840180899488004980002517940180899888090790002D17981
:20260000411802A8018005990902537AC918099B1980917A0902D37AC918099B5980069942
:202620000902527B8918099A91800021405E00F07FFF054900F06CF90449FFF72AFC079994
:2026400008600AB080BDC0460000AA43B81E124280B586B0059005981E49884203D3FFE774
:202660001D480590FFE7059950204843059000200090049001F0A2FD014600980391029073
:2026800001A90870FFE701F099FD029002980399884204D9FFE701A901200870FFE701A884
:2026A0000078002807D0FFE703980299401A0B494018049004E003980299401A0490FFE7FF
:2026C00004980599884201D3FFE700E0DBE706B080BDC0463433030033330300FFFFFF00D1
:2026E00080B584B01E491F48039001F0F3FA03981D49FFF787F903980023019319461A46AA
:2027000000F0DAFE019B0398009319461A4601F0D9FB019A0398114601F0CEFA019A039827
:20272000114601F01DFD019B039801210291009119461A4601F0C6FB0199029A039801F087
:20274000BBFA0199029A039801F00AFD039801F0ABFC0398032101F0B1FC04B080BDC04674
:2027600021490000002086409849000080B584B01E491F48039001F0ADFA03981D49FFF7CF
:2027800041F903980023019319461A4600F094FE019B0398009319461A4601F093FB019AC9
:2027A0000398114601F088FA019A0398114601F0D7FC019B039801210291009119461A4627
:2027C00001F080FB0199029A039801F075FA0199029A039801F0C4FC039801F065FC039852
:2027E000032101F06BFC04B080BDC046AF49000000008640A049000080B588B01A4801905F
:2028000001F0D0FA1948029001F0CCFA1848039001F04CFB1748049001F048FB164805900E
:2028200001F044FB1548069001F010FB1448079001F078FB019801F091FA029801F08EFAFA
:20284000039801F027FB049801F024FB059801F021FB069801F0EEFA079801F057FB1020EB
:2028600001F0B2FC08B080BD00000A4000200A4000208640000086400040084000200F406D
:2028800000801040FCB40127FF0706004E4001D4002600E03E00020243001B0E30D03A43F0
:2028A000FF2B30D00C024D002D0E29D03C43FF2D29D05B194240504042404C4061404C40FA
:2028C00000B500F0ADFE20BCAE464240504042404C4061404C4025001400002C01D46400ED
:2028E000013B803401D3013364087E3B08DDFF2B09D2BC43200ADB0518433043FCBC70478B
:202900000020FCBC7047FF20C0053043FCBC7047FCB40127FF0706004E40F60FF6070202EA
:2029200043001B0E2DD03A43FF2B2DD00C024D002D0E26D03C43FF2D26D05B1B0020202186
:2029400064085208A2424041A24200D3121B013904D0002A01D05200F4D18840384201D134
:202960004000013B803001D3013300E040007F3307DDFF2B08D2400ADB0518433043FCBCB9
:2029800070470020FCBC7047FF20C0053043FCBC70470000F8B5451C00780023082B32D04D
:2029A0002F78C2070CD16A780F241440E41C122C0BD102242E57F4B2002E08D4EE1C0EE0F4
:2029C0006D1C4A1C0F7011461AE0AE1C08E02E1DED7800957F252C40009DED012C1912341B
:2029E0003D0112095219094DAA420ED0D243002C05D08D5C4F1C0D70641E3946F7E73546B2
:202A000040085B1CCAE72846C5E7F8BDFF0F000080B58AB008900791069208980799096881
:202A2000401A0590089807990860069800681549FFF728FF0490069801904168806848439F
:202A400000F076FD0199C968FFF71CFF03900398002100F055F9002803D0FFE70020099010
:202A60000CE004980399FFF753FF0290059800F05FFD0299FFF706FF0990FFE709980AB0FF
:202A800080BDC046DA0F4940FEB502930F46194D0024E143184E00973740019043422B463B
:202AA000BB4101D20C4623E0084602990E405342B54101D204461BE0134601990B433E4356
:202AC0001E43029D009E13D02B46334004D401998B1A3346AB4103E00199531A2B46B341C6
:202AE000044605DB51406E400E43701E864134462046FEBD0000F07FFFFFFF7F80B582B0DA
:202B00000120009041041448019001F02FFA009902460198531E9A41104B1A60090401F01F
:202B200025FA009902460198531E9A410C4B1A60890501F01BFA009902460198531E9A4185
:202B4000084B1A60C90301F011FA411E88410649086002B080BDC04600000A4094012020ED
:202B6000900120208C01202088012020F8B50446164F174D0E462E400120009464423C468F
:202B8000B4411AD31D405442AF4116D31046009C20433543054311D00020C0431C460C40C0
:202BA0000ED4009CA41A0C469C4106DB0098504059400143481E81410846F8BD0020F8BDC4
:202BC000009C141B1C468C41F0DAF6E70000F07FFFFFFF7FF8B51C4617460E46054601F06D
:202BE000DEFA0021012E03DBB04201DBA919491E002F04D02268531E23602E23137032460B
:202C0000824206DD23685F1E276030271F70521EF6E7B04200DB3046012808DBA9420BD333
:202C200008782268531E23601070491EF6E72068411E216030210170F8BD80B584B003A9DE
:202C400000200870FFE703A80078072824DCFFE70398B030C0B200F000FD0020019000F043
:202C6000FCFC102000F0F9FC019802A90870FFE702A800787F2809DCFFE7002000F008FDFC
:202C8000FFE70298401C02A90870F1E7FFE70398401C03A90870D6E704B080BD10B5FFF7F3
:202CA00065FF002801D0002010BD012010BDC04610B5FFF75BFF002801DB002010BD0120AF
:202CC00010BDC04610B5FFF751FF002801DD002010BD012010BDC04610B5FFF7D5FE002879
:202CE00001DA002010BD012010BDC04610B5FFF7CBFE002801DC002010BD012010BD0000B4
:202D000010B500F06FFC002801D0002010BD012010BDC04610B500F065FC002801DB00207F
:202D200010BD012010BDC04610B500F05BFC002801DD002010BD012010BDC04610B500F02A
:202D400015FC002801DA002010BD012010BDC04610B500F00BFC002801DC002010BD0120AF
:202D600010BD000080B584B00390029102980399FFF78AF80190FFE701980E49FFF7E8FF05
:202D8000002806D0FFE701980D49FFF782F80190F2E7FFE701980849FFF7BCFF002806D007
:202DA000FFE701980549FFF774F80190F2E7019804B080BD00003443000034C30000B4438B
:202DC0000000B4C3F0B581B0002A22D091235B01C3180F200402901E0090561E0020DF6950
:202DE00027421BD00F5C1F60864210D0DF69274211D00F187D781D60009D854207D0DD6941
:202E000025420AD0BD781D60C01C8242E7D1104604E0002002E0401C00E0801C80B201B070
:202E2000F0BD000080B582B012491348019001F06CF90198114900F03DFA0198002100F01D
:202E40008FFE019815212D2200F09CF9019801F051F80198702100F0A5FD0198022100F007
:202E6000B5FD019801F0A3F8019801F095F802B080BDC046B54900000080104082490000D6
:202E800070B514460F4D0B462B40002222600E4EB34215D81E46064312D01E0D07D1002205
:202EA0000A4BFEF7A5FE0D403522D2432B461B0D9A18074BD2182260064A0A400649511811
:202EC00070BDC046FFFFFF7FFFFFEF7F0000504302FCFFFFFFFF0F800000E03F80B584B033
:202EE00003AB187002A801700192FFE70198007800281DD0FFE703A80090007802A909781D
:202F0000019A1278FFF7F4F800980399083101700078792808DBFFE703A90020087002980C
:202F2000801C02A90870FFE70198401C0190DDE704B080BD80B582B012491348019000F013
:202F400080FD01980321490200F068FD019800F04DFF019801F08AF80198272100F082FF64
:202F600001980021009100F0F5FC0099019800F0DDFC019800F052FF019800F043FF02B0D3
:202F800080BDC0469649000000200F40F0B587B00191064602AD0020E874123537460A24C9
:202FA0003846214600F04AF84443391BCA175140891A3031297009376D1E122F0746EED8F1
:202FC000002E01D46D1C01E02D20287002A8441B224614320198294601F012F91334204637
:202FE00007B0F0BDF0B5FFB086B01C4615460246A868002801D50620A8602368039304ABD2
:203000000090019305A80B46FEF7BCFA0646049FAA683946234600F0D7FB20680399814251
:2030200001D0012202E028680007C20F304639462346FFF7CFFD7FB006B0F0BD1CB50029A6
:2030400022D04C08002900D5494242105440002800D5404200230A00904201D95200FBE72F
:2030600090425B41904200D3801A914201D25208F6E71900002C00D54042640000D5494266
:203080000200080011001CBD01000020FEF7B7F91CBD7CB515460C460646C01731464140A4
:2030A000081A009200210A226423FDF79FFC30460930122808D8DF202040502804D02868F5
:2030C000411E296030210170002E01D42B2000E02D2029684A1E2A6008702868411E296058
:2030E00004707CBD10B586B00192024601980592049103AA107002A80380059809494018E7
:203100000499490012781143074A00F0E7FB05980649401802990904C91D054A00F0DEFBDE
:2031200006B010BD10120000FF070000141200000700FF0F80B586B00D480590042004909C
:203140000D2003900B4802900B4800680B4902AAFFF75EFC01900199094800900068FEF756
:2031600098FE014600980160006806B080BDC046CDCC4C3D9A99994098012020A40120202C
:20318000A801202080B584B003900291019203980B49401802990B4A00F0B4FB03980A4960
:2031A000401801993F2200F0ADFB0399074A881889580122114000F0A5FB04B080BDC046BB
:2031C00010110000FFFF0000141100000411000081B010B587B00C46099305924A1E00215B
:2031E000012C00D20A4603920491029009A9069108480090084B05A802AAFCF761FF002C70
:2032000002D0029900220A7007B010BC02BC01B00847C046F9370000553F000080B584B031
:2032200003A9087002A900200870FFE702A80078072816DCFFE703A801900078C00900F0AB
:2032400077FA012000F0A8FA002000F0A5FA0199039840000870FFE70298401C02A90870AF
:20326000E4E704B080BD00000CB54A00520D03231B02FF33D21A13D31F239A1A12D98E462C
:20328000C9020123DB071943D1400B2A02D21532D04001437346002B00D5494208000CBD37
:2032A00000200CBD0B000120C007002B00D401380CBD000070B511221302C218C4580125A8
:2032C000AC43C4500C888D7825438C882C43C558084E2E40084D25407419C4508879CB79E6
:2032E0000343087A184351687E23994318400818506070BDE798FDFF1867000010B50E490A
:203300000E4A01235C0590600868204205D10868204202D108682042F6D010681B0403431E
:2033200013600868C00605D40868C00602D40868C006F6D510BDC04604020B4004010B408A
:2033400080B582B00020019000F098FD0120400200F0F6FB019800F085FC00F0F1FE00F0B3
:203360008FFE0648FEF7B6FC102000F089FC00F091FE0198FFF7C2FF02B080BD24490000FB
:203380001CB50A0017D000230124E407A04200D20400944201D95200FBE790425B4190425C
:2033A00000D3801A914201D25208F6E719000200080011001CBD01000020FEF720F81CBDAF
:2033C00008B443001B0E0FD0FF2B11D00721C9015B18C10FC9020B43010048074902090BDE
:2033E0001B05194308BC70470021002008BC704701004002C90DC900C91D090508BC7047C9
:2034000010B50E4902788B185B78401CDB06F9D400212D2A04D02B2A02D0401E134600E08C
:203420000378303B092B04D80A244C431919401CF6E72D2A00D14942084610BD2048000038
:2034400010B584B0079C069C039002910192009302980199084300990843069908430799F5
:2034600008430449084303998900034A885004B010BDC046800004000480424070B50D4D8F
:2034800041190F2212020123DC02465980231E43465148681040A04207D048681040A042B6
:2034A00003D048681040A042F3D108689843086070BDC0463812000010B586B001930B4683
:2034C00001460198059104A90B8003AB1A8002AA10800598054C001909881B881943128889
:2034E0001143034A00F00EFA06B010BD0418000080FF000080B5FFF77FF9FDF7D7FDFFF7B4
:203500001FFFFFF7EDF8FFF731F900F02BF9FFF711FDFFF787FC00F02BFE0349B8220020A2
:2035200088540249885480BD00002020BC00202006B49E22002802D404D106BC70474142C6
:2035400004D400E00100013A4900FCD5803101D3013200E04900490AD2051143002802D5FF
:203560000122D2071143080006BC704740B542004B005E08164301D006004E4000D4D01A16
:2035800004D20120C90F06D1404204E003D90120C90F00D04042FF263606B24200D8B342D6
:2035A00001D90120404240BD70B50A480A4C84420CD00A4D0A4EB54208D02A686968501CD5
:2035C00012789200A25890470835F4E700BF00BF70BDC046CC490000C0490000DC490000F2
:2035E000EC49000040B542004B005E08164301D006004E4000D4D01A04D20120C90F06D18C
:20360000404204E003D90120C90F00D04042FF263606B24200D8B34200D9012040BD000004
:20362000FCB4020C0B0CFF242402FF34204021400C00444315005D4306005E430F005743E0
:20364000320C3B0CA818C01832043B040025A1186841C9186841FCBC704780B582B001A947
:203660000091087000F013FA7820FFF7D7FD00F04DFB0020FFF7D2FD00F048FB0098007882
:20368000FFF7CCFD00F042FB00F032FB02B080BD80B582B001A90091087000F0F8F978209F
:2036A000FFF7BCFD00F032FB4020FFF7B7FD00F02DFB00980078FFF7B1FD00F027FB00F066
:2036C00017FB02B080BD000010B584B0069C0390029101920093029801990843009908439F
:2036E000069908430349084303998900024A885004B010BD810004000480424080B584B08B
:2037000003AA0192107002A801700298B030C0B2FFF7A3FF019800780F210840FFF79DFF2F
:203720000198007800091030FFF797FF04B080BD80B582B0014601A801700078002806D074
:20374000FFE701204106064800F044FB05E001204106034800F061FCFFE702B080BDC046DE
:2037600000000A4080B582B008490948019000F0B1FA01980749FEF7C7F90198012100F081
:203780008DFA019800F090FC02B080BDB2490000004008404C49000080B582B0014601A82F
:2037A00001700078002805D0FFE70648022100F011FB04E00348022100F02FFCFFE702B0CB
:2037C00080BDC04600000A40F8B51C4615460646571800F0E4FC711E012D0CDB3022012F41
:2037E00002DB874200DCCA5D23685E1E26601A707F1E6D1EF0E7F8BD70B514460D4601463C
:203800006A68A86882420BD9161AA64200D326462868324600F0F4FC286880192860A8681E
:203820000019A860204670BD80B582B0019000200090FFE700980749884208DCFFE7019831
:20384000FEF706FFFFE70098401C0090F2E702B080BDC046E703000081B0014668460170B5
:2038600000214056002809D4FFE7684601781F2001400120884002490860FFE701B0704715
:2038800080E200E081B001466846017000214056002809D4FFE7684601781F2001400120E5
:2038A000884002490860FFE701B0704700E100E004B40422002802D1002104BC704701D537
:2038C0000832404212021F320100521E4900FCD30805090B1205114304BC704784B0039074
:2038E00002910192039800680090009801998843009000980299019A114008430399086014
:2039000004B0704784B0039002910192039800680090009801998843009000980299019A61
:20392000114008430399086004B0704780B584B0019101460198039102A908800398044AF1
:203940008018098807221202FFF7DCFF04B080BD3812000080B584B0019101460198039186
:2039600002A908700398044A801809780722FFF7C9FF04B080BDC0463812000081B0009039
:203980000549042008600098401E0449086004490020086001B0704710E000E014E000E0C1
:2039A00018E000E080B584B0019101460198039102A908700398044A801809787022FFF713
:2039C000A1FF04B080BDC0460C11000080B584B0019101460198039102A908700398044AB8
:2039E000801809780722FFF78DFF04B080BDC0460C110000084880F3088800BF00BF00F02E
:203A000015FC002801D0FFF7CFFD0020FEF7E4FC012000F0F9FBC0460080202080B584B0B1
:203A2000019101460198039102A908800398092252028018098803225202FFF763FF04B085
:203A400080BD70B50122120383180C785D680C26B54334402C195C60497883580724A3439C
:203A600021405918815070BD80B584B00A46014603A8017002A90A700078097801AA0092FF
:203A80000123FEF7D3FA0098007804B080BD80B582B001200090FFF74BFE0098FFF77CFEE0
:203AA00000200190FFF744FE0198FFF775FE02B080BD80B584B013460A46014603A80170B7
:203AC00002A90A7001AA1370007809780123FEF771FB04B080BD000030B514004C43250077
:203AE0001C0044436419050010002900FFF798FD001904000D002100280030BDB0B50446CE
:203B00000020002B08D0D2B20D782570954204D0641C491C5B1EF7D1B0BD601CB0BD0000BD
:203B200082B00190009100980349084301998900024A885002B070478000040004804240C8
:203B400080B582B0014601A8018001880F2002020248FFF7D7FE02B080BDC04604010B4077
:203B600080B582B001900091019811210902401800990322D203FFF7C5FE02B080BD000053
:203B800018B520239B1A04D8010000205B42994004E004009140DC402143904018BD00000F
:203BA00082B001900091009B0199034A88581843885002B07047C0464810000082B0019092
:203BC0000091009B0199034A88581843885002B07047C0464810000081B00090009881001E
:203BE000034A885801235B061843885001B070470480424082B001900091009B0199034A9C
:203C000088581843885002B07047C0462810000082B00190009100988021084301998900EF
:203C2000014A885002B070470480424082B001900091009B0199034A88581843885002B057
:203C40007047C0469013000081B000900098044940580F2108404142484101B07047C046D4
:203C60003C12000080B582B0014601A80170017802480322FFF746FE02B080BD00010B40D1
:203C800080B582B0014601A80170017802483022FFF738FE02B080BD04010B4082B0019019
:203CA0000091009B0199034A88581843885002B07047C0462810000010B592008018044AFA
:203CC00083580724A404A34321405918815010BD3018000010B50122120383180C789C6080
:203CE0004B7883508978014A815010BD0C11000080B582B00020FFF71BFD01200190FFF7EA
:203D00004BFD0198FFF714FD02B080BD80B582B000200190FFF70CFD0120FFF73DFD0198CB
:203D2000FFF73AFD02B080BD03490020086003490860034908607047A4012020A8012020A6
:203D40009801202082B00190009100980199024A885002B07047C046D012000081B00090CE
:203D600000990120C2020248885001B07047C0460100002682B0019000910198024940583E
:203D80000099084002B070473810000081B0009000988100024A8120885001B07047C04684
:203DA0000480424081B000900099024A0248885001B0704704080000030000B182B001904A
:203DC000009100980199024A885002B07047C0469012000082B00190009100980199024A19
:203DE000885002B07047C0469012000081B00090009909204202885801231B0218438850BF
:203E000001B0704781B000900099034A885801231843885001B070472812000081B00090F9
:203E20000099034A885804231843885001B070472812000081B0009000990120C202024837
:203E4000885001B07047C0460100002681B000900099024A0248885001B0704704080000B9
:203E6000030000B182B001906846017000780199014A885002B070472412000081B0014660
:203E80006846017000780249086001B07047C04608030B4081B0009000990120C20202488B
:203EA000885001B07047C0460100002681B000900099024A0248885001B070470408000059
:203EC000030000B110B5029CA400001911431943014A815010BDC0465018000081B0009046
:203EE0000099034A885801231843885001B070470418000081B000900099112002028858B2
:203F000001235B041843885001B0704781B0009000990120C2020248885001B07047C046B4
:203F20000100002681B000900099024A0248885001B0704704080000030000B180B50448E9
:203F400000F0DAF8002801D0FFE7FFE780BDC046004008404B688A689A4204D20A68531CD7
:203F60000B6010708A68521C8A60704782B00190009101982721C90140580099084002B02B
:203F8000704782B00190009101982721C90140580099084002B0704781B0009000991120FE
:203FA0000202885801231843885001B0704781B00090009911200202885804231843885095
:203FC00001B0704780B58D20FFF747FB1020FFF744FBAE20FFF741FB80BD80B582B0012035
:203FE0000190FFF7D9FB0198FFF7A2FB02B080BD03228058002805D0401E4A1C00230B70EF
:204000001146F7E7704782B0019000910098019995225201885002B0704782B0019000918F
:204020000098019995225201885002B0704782B0019000910098019995225201885002B0E9
:204040007047000081B0009000980249405801B07047C0461812000081B000900098024931
:204060004058C0B201B070471C12000081B000900099024A0020885001B070471412000074
:204080000349086801221202904308607047C04608010B4003490868012212031043086032
:2040A0007047C04604010B4081B000900099024A0120885001B070470811000082B0019010
:2040C00000910098019911221202885002B0704740B584B002AE0096FEF7D4F9029A039B2A
:2040E00004B040BDC9B202788A4204D0002A01D0401CF8E70020704781B000900098812172
:2041000049014058C0B201B0704710B50122120383180C789C604978815010BD10B5002384
:204120009A4203D0CC5CC4545B1CF9E710BD80B50B4603214258C11D184600F061F880BD66
:2041400002490868012290430860704708010B4002490868052210430860704710E000E017
:2041600092008018014A81507047C0461018000080B501200006FFF701FCFFF7E9FF80BDAA
:2041800000214258091D002AFBD1081F801070470B4611461A4680B500F008F880BD00214F
:2041A000425C491C002AFBD1481E704700239A4202D0C1545B1CFAE7704700000148006843
:2041C0007047C04618E000E0811E091F00BFFCD2704702460B4620462946FFE782B0009425
:2041E000014C019410BD00BF6D1200000022304639462B467047000000487047A0012020B3
:2042000080B5FFF78BFF80BD00F003F8FEE7FFE7FEE700BF704701E07047000082B000943D
:10422000014C019410BD00BFF5390000012070471A
:2042300000000000000000000000000000000000000000F800000000000000333000000013
:2042500000100C06100C0600000000000000000040C07840C0784000043F04043F04040048
:20427000007088FC08300000001820FF211E0000F008F000E018000000211C031E211E000F
:2042900000F00888700000001E2123241927211010160E00000000000000000000000000F3
:2042B000000000E018040200000000071820400000020418E00000000040201807000000F4
:2042D000404080F0804040000202010F01020200000000F0000000000101011F01010100B0
:2042F000000000000000000080B07000000000000000000000000000000101010101010107
:204310000000000000000000003030000000000000000000806018040060180601000000B2
:2043300000E010080810E000000F102020100F00001010F8000000000020203F2020000028
:204350000070080808887000003028242221300000300888884830000018202020110E0087
:204370000000C02010F8000000070424243F240000F80888880808000019212020110E00D6
:2043900000E0108888180000000F112020110E0000380808C83808000000003F00000000E7
:2043B0000070880808887000001C222121221C0000E010080810E0000000312222110F00AA
:2043D000000000C0C00000000000003030000000000000800000000000008060000000008D
:2043F00000008040201008000001020408102000404040404040400004040404040404009A
:2044100000081020408000000020100804020100007048080808F00000000030360100002E
:20443000C030C828E810E0000718272423140B000000C038E0000000203C2302022738202E
:2044500008F8888888700000203F202020110E00C030080808083800071820202010080087
:2044700008F808080810E000203F202020100F0008F88888E8081000203F2020232018003C
:2044900008F88888E8081000203F200003000000C03008080838000007182020221E020099
:2044B00008F808000008F808203F210101213F20000808F8080800000020203F2020000003
:2044D00000000808F8080800C08080807F00000008F888C028180800203F20012638200067
:2044F00008F8080000000000203F20202020300008F8F800F8F80800203F003F003F2000A8
:2045100008F830C00008F808203F200007183F00E01008080810E0000F10202020100F0020
:2045300008F808080808F000203F210101010000E01008080810E0000F18242438504F009A
:2045500008F8888888887000203F2000030C302000708808080838000038202121221C00BD
:20457000180808F8080818000000203F2000000008F808000008F808001F202020201F0096
:204590000878880000C83808000007380E010000F80800F80008F800033C0700073C030029
:2045B000081868808068180820302C03032C30200838C800C83808000000203F200000004E
:2045D00010080808C83808002038262120201800000000FE020202000000007F4040400061
:2045F000000C30C000000000000000010638C00000020202FE000000004040407F0000006D
:2046100000000402020204000000000000000000000000000000000080808080808080807C
:204630000002020400000000000000000000000000008080808000000019242222223F2060
:2046500008F8008080000000003F112020110E000000008080800000000E1120202011008B
:20467000000000808088F800000E112020103F200000808080800000001F22222222130022
:20469000008080F0888888180020203F202000000000808080808000006B94949493600011
:2046B00008F8008080800000203F210000203F2000809898000000000020203F20200000FC
:2046D000000000809898000000C08080807F000008F8000080808000203F24022D302000D9
:2046F000000808F8000000000020203F202000008080808080808000203F20003F20003F46
:204710008080008080800000203F210000203F200000808080800000001F202020201F004C
:20473000808000808000000080FFA12020110E000000008080808000000E112020A0FF806C
:20475000808080008080800020203F2120000100000080808080800000332424242419002C
:20477000008080E0808000000000001F202000008080000000808000001F202020103F20FC
:20479000808080000080808000010E300806010080800080008080800F300C030C300F0022
:2047B00000808000808080000020312E0E312000808080000080808080818E70180601006D
:2047D00000808080808080000021302C2221300000000000807C020200000000003F40401A
:2047F00000000000FF00000000000000FF0000000002027C800000000040403F00000000EC
:204810000006010102020404000000000000000000808080808080808080909090909080A4
:20483000808080808080808080808080808080808018040404040404040404040404040498
:2048500004020202020202020202020404040404040443434343434341414141414141417A
:2048700041414141414141414141414104040404040423232323232321212121212121212A
:204890002121212121212121212121210404040480000000000000000000000000000000EC
:2048B0000000000000000000000000000000000000000000000000000000000000000000E8
:2048D0000000000000000000000000000000000000000000000000000000000000000000C8
:2048F0000000000000000000000000000000000000000000000000000000000000000000A8
:2049100000000000000000000000000000000000000800000100000000000000000000007E
:204930004000000000000000000000000200000004000000010000002C00C44102000000ED
:20495000D330000001000000000000000000000030313233343536373839414243444546A1
:2049700000303132333435363738396162636465660000001800000000300000636F756EC8
:2049900074413A2566000800401F000020000100401F0000200100007961773A2566000867
:1049B000000008001F0800000000000000000000C8
:2049C000952900002F410000F13F00000200000098010000000100000F05FFF0CC490000C5
:1049E00000002020D4490000980120200000000091
:00000001FF
